:100000000C9465000C948D000C948D000C948D0064
:100010000C948D000C948D000C948D000C948D002C
:100020000C948D000C948D000C948D000C948D001C
:100030000C948D000C948D000C948D000C948D000C
:100040000C94FF090C948D000C94EC0C0C941E0D78
:100050000C948D000C948D000C948D000C948D00EC
:100060000C94D2080C948D000000000800020100DE
:100070000003040700000000000000000102040863
:100080001020408001020408102001020408102002
:10009000040404040404040402020202020203032E
:1000A00003030303000000002300260029000000D2
:1000B0000000250028002B0000000000240027007D
:1000C0002A00E00230084E0D0F0311241FBECFEFAF
:1000D000D8E0DEBFCDBF11E0A0E0B1E0E4EBF4E298
:1000E00002C005900D92A439B107D9F723E0A4E925
:1000F000B1E001C01D92AD38B207E1F710E0C8ECE5
:10010000D0E004C02297FE010E94C10FC23CD1077B
:10011000C9F70E948D0F0C944D120C9400008EE0D4
:1001200092E00E9403048EE092E00E9466038EE05B
:1001300092E00E94BA0367E271E08EE092E00E94D2
:10014000DD0D26E040E051EE60E070E08CEE92E0E4
:100150000E948A0C68EC70E08BE192E00C94100E27
:10016000CF92DF92EF92FF920F931F93CF93DF9383
:10017000EC018B016A0179010E94490A60939B019D
:1001800070939C0180939D0190939E018091060144
:10019000811110C01C161D066CF46AE371E08CEE30
:1001A00092E00E94DD0D8EE092E00E94660381E005
:1001B0008093060110929A010431110548F484E0FD
:1001C000C816D10428F4F70184819581892B61F444
:1001D00080912102909122028C179D078CF4D0937C
:1001E0002202C09321020CC04C2D602F8EE092E0C1
:1001F0000E94C103B7018EE092E00E94CF0DE8CFCC
:10020000DF91CF911F910F91FF90EF90DF90CF90F2
:10021000089580919A0181112BC0809121029091C3
:100220002202039729F180910601882391F08EE044
:1002300092E00E9461031092060143E06FE08EE0BD
:1002400092E00E94C10362E471E08EE092E00E94BD
:10025000DD0D81E080939A0160E571E084E991E031
:100260000E94830E68E471E08CEE92E00C94DD0D48
:100270000895CF93DF93EC018230910554F480917F
:10028000210290912202029724F08EE092E00E94D7
:10029000F603D0932202C0932102DF91CF910895FB
:1002A0008F929F92AF92BF92CF92DF92EF92FF9286
:1002B0001F93CF93DF93CDB7DEB7A4970FB6F89413
:1002C000DEBF0FBECDBF20911F0230912002215012
:1002D000310940E050E06BE172E0CE014F960E94A0
:1002E0003C0F60E571E08BE192E00E94830E10927A
:1002F0001A0260E571E0CE0101960E944D0E60E5A4
:1003000071E0CE0107960E944D0E60E571E0CE01CE
:100310000D960E944D0E60E571E0CE0143960E945D
:100320004D0E61E571E0CE014F960E94EA0E8823E2
:1003300021F08EE092E00E94B30360E2CE014F967E
:100340000E94380F01967C01C12CD12C16E0B70118
:100350008BA19CA1E816F90608F52FEFE21AF20A24
:10036000CE014F960E941A0F803221F433E0C3165B
:10037000D10481F41C9D90011D9D300D1124682F26
:10038000C90121E030E02C0F3D1F820F931F0E9416
:10039000D70EDDCF3FEFC31AD30AD9CF28E030E024
:1003A00040E050E0BE01615E7F4FCE0149960E9461
:1003B0003C0F67E571E0CE0149960E94EA0E182FC6
:1003C000CE0149960E94DF0D112341F0CE01019626
:1003D0000E94810F7093220260932102BE016D5E24
:1003E0007F4FCE0149960E947A0ECE010D960E9453
:1003F000810F4B015C01CE0107960E94810F6B01BA
:100400007C01CE0101960E94810FDC01CB019E018F
:10041000275E3F4FA401B6010E94B000CE0149966D
:100420000E94DF0DCE0143960E94DF0DCE010D9696
:100430000E94DF0DCE0107960E94DF0DCE010196CE
:100440000E94DF0DCE014F960E94DF0DA4960FB6DD
:10045000F894DEBF0FBECDBFDF91CF911F91FF900B
:10046000EF90DF90CF90BF90AF909F908F900895C6
:100470006FE471E084E991E00E94C70E64E971E0E5
:100480008CEE92E00E94CF0D60E571E084E991E08E
:100490000C94830E0F931F93CF93DF9300D000D063
:1004A00000D0CDB7DEB78FE991E00E944807182F42
:1004B000882309F460C080E090E00E9439018091B7
:1004C0009A018823B1F060E571E0CE0101960E94A7
:1004D0004D0E9E012F5F3F4F40E050E060E070E026
:1004E00081E090E00E94B000CE0101960E94DF0DF5
:1004F00042C060E671E0CE0101960E944D0E60910F
:10050000980170919901615F7F4F9E012F5F3F4F6E
:1005100043E050E081E090E00E94B000CE010196FF
:100520000E94DF0D1A3211F0133201F562E471E01E
:10053000CE0101960E944D0E9E012F5F3F4F43E07A
:1005400050E06FE070E081E090E00E94B000CE01EA
:1005500001960E94DF0D133211F40E94380260E50B
:1005600071E084E991E00E94830E05C0612F84E967
:1005700091E00E94D70E80911A0281110E945001D1
:100580000E94490A00919B0110919C0120919D01BC
:1005900030919E01601B710B820B930B613177428E
:1005A0008105910510F00E94090126960FB6F89476
:1005B000DEBF0FBECDBFDF91CF911F910F91089588
:1005C000EF920F9360E571E08BE192E00E944D0E97
:1005D00000E024E044E16FE38EE092E00E94340307
:1005E00084E0E82E04E027E031E04BE051E06FE0EA
:1005F00071E08FE991E00E9467040E94490A6093CC
:100600009B0170939C0180939D0190939E0160E5F6
:1006100071E084E991E00F91EF900C944D0E84E924
:1006200091E00E94DF0D8BE192E00C94DF0DCF93FF
:10063000DF93D1E08CEE92E00E94A70B892B89F02A
:100640008CEE92E00E94C00BC82F682F8BE192E0E5
:100650000E94D70ECA3011F0CD3061F7D0931A0244
:10066000E9CFDF91CF9108950F93FC01138212829D
:1006700086E691E0918380836483408721870287A7
:1006800088E083870F9108951F93CF93DF93EC0148
:10069000162F6C8183E292E00E941008E091230201
:1006A000F09124026B85612B0190F081E02D83E2B3
:1006B00092E0099583E292E0DF91CF911F910C9433
:1006C0002D08FC01138660E00C94440328E0FC0133
:1006D000238760E00C9444031F93CF93DF93EC01D6
:1006E000162F64600E94440381E090E00E94A00AFB
:1006F000612F6B7FCE010E94440382E390E0DF9183
:10070000CF911F910C94A00A1F93CF93DF93EC011C
:10071000162F0E944403612FCE01DF91CF911F91CC
:100720000C946C03EF92FF921F93CF93DF931F9271
:10073000CDB7DEB77C01162F607F642B49830E9402
:10074000840380E1189FB00111244981642BC70103
:100750000F90DF91CF911F91FF90EF900C94840345
:1007600040E00C94920361E00E94B00380ED97E0BA
:100770000C94A00A62E00E94B00380ED97E00C9414
:10078000A00ACF93DF93CDB7DEB728970FB6F894C2
:10079000DEBF0FBECDBF28E0EFE1F1E0DE01119634
:1007A00001900D922A95E1F7FC012185241710F4A0
:1007B0004FEF420FFE013196E40FF11DE40FF11DE2
:1007C0002081260F2068622F28960FB6F894DEBF8E
:1007D0000FBECDBFDF91CF910C94B003FC016681B9
:1007E000262F246026836C600C94B003FC01668184
:1007F0006E7F668368600C94B00341E00E949203B0
:1008000081E090E00895CF93DF93EC0183E292E0E2
:100810000E9406081D828985823010F098E09D8331
:100820009A85992329F0813019F48D8184608D8314
:1008300062E370E080E090E00E94780A6B85CE0170
:100840000E94440368EE73E080E090E00E94780A22
:1008500060E3CE010E94840384E991E10E94A00A32
:1008600060E3CE010E94840384E991E10E94A00A22
:1008700060E3CE010E94840386E990E00E94A00A12
:1008800060E2CE010E9484036D816062CE010E940D
:10089000B00384E08E83CE010E94EE03CE010E945D
:1008A000B30382E08F8366E0CE010E94B003CE01E5
:1008B000DF91CF910C94BA03862F642F0C940F0B09
:1008C000862F642F0C94480B862F0C947E0B4F922E
:1008D0005F926F927F928F929F92AF92BF92CF92D0
:1008E000DF92EF920F93CF93DF93EC014B013A012C
:1008F000590102960E9469078EE691E099838883E8
:100900006E018CE1C80ED11C26018CE3480E511CEF
:10091000C6010E94690786E0C80ED11CC414D50424
:10092000B9F7FE01EE59FF4F718260823296B182B3
:10093000A082329600833196E0823797918280823E
:1009400038968AE090E091838083329684EF91E03C
:100950009183808333961182108271971082118265
:1009600012821382C459DF4F1882DF91CF910F9109
:10097000EF90DF90CF90BF90AF909F908F907F903F
:100980006F905F904F9008952F923F924F925F9299
:100990006F927F928F929F92AF92BF92CF92DF928F
:1009A000EF92FF920F931F93CF93DF93CDB7DEB7F4
:1009B00028970FB6F894DEBF0FBECDBF98878F8300
:1009C000F12C4C0186E6880E911C0F8118850E597A
:1009D0001F4FD4018C91F816A0F4AF81B8858D918A
:1009E0009C91F801A081B181AF0DB11DFC01208166
:1009F000318142E06C918F819885F9010995F394DA
:100A0000E8CF512CEF81F885E959FF4FFA83E9834C
:100A10000F8118850C591F4FC12CD12C7601C3941E
:100A20008F8198858E599F4F9C838B83A981BA8132
:100A30008C91581608F088C0A52CB12CAF81B885D0
:100A40008D919C91F801A081B181AA0DBB1DFC0183
:100A50002081318141E06C918F819885F901099560
:100A6000AF81B8858D919C91F801A081B181AA0DCB
:100A7000BB1DFC012281338140E06C918F81988500
:100A8000F9010995D701C601052C04C0880F991FEB
:100A9000AA1FBB1F0A94D2F79C011C01209430941A
:100AA000412CD4018C91EF81F88540815181481609
:100AB00048F5642C712CEB81FC81A081B181A60DDD
:100AC000B71DFA01448155816C918F8198852D83E2
:100AD0003E83FA010995660C771C2D813E81EF81DA
:100AE000F885E60DF71D892B29F480859185822BE9
:100AF000932B04C0808591858221932191878087E3
:100B00004394CFCFF801A081B181AA0DBB1DFA019A
:100B10002281338141E06C918F819885F90109959B
:100B2000AF81B8858D919C91F801A081B181AA0D0A
:100B3000BB1DFC012081318140E06C918F81988543
:100B4000F9010995539472CF28960FB6F894DEBF39
:100B50000FBECDBFDF91CF911F910F91FF90EF900E
:100B6000DF90CF90BF90AF909F908F907F906F90CD
:100B70005F904F903F902F900895FC0180E090E0AF
:100B8000258D368D2617370739F0019636968A302F
:100B90009105B1F78FEF9FEF0895DC0126E0629F8A
:100BA000A00DB11D112490965C934E935F9721E0A8
:100BB00091962C939197FC01E459FF4F2081319637
:100BC0000190F081E02D222331F0309749F061113E
:100BD00007C0DC0102C0309719F05C968C91099433
:100BE0000895CF92DF92FF920F931F93CF93DF93DD
:100BF0001F92CDB7DEB76C01F62EFC0186E0689F30
:100C0000E00DF11D112411A2878D90A18130910575
:100C1000F1F01CF4892B51F046C08230910599F116
:100C2000039709F040C040E050E031C04423D9F1BF
:100C300041E050E0C6010E94CD050E94490AF6013C
:100C4000E85AFF4F60837183828393832CC049836A
:100C50000E94490AF601E85AFF4F00811181228162
:100C60003381601B710B820B930B72960081118193
:100C700020E030E04981061717072807390718F4E4
:100C800042E050E004C041110EC043E050E06F2D3F
:100C9000C6010F90DF91CF911F910F91FF90DF90D0
:100CA000CF900C94CD050F90DF91CF911F910F91B4
:100CB000FF90DF90CF9008952F923F924F925F92D6
:100CC0006F927F928F929F92AF92BF92CF92DF925C
:100CD000EF92FF920F931F93CF93DF931F92CDB7A5
:100CE000DEB71C01FC014AE08FEF9FEF278D30A19A
:100CF000232B21F4148E968F858F11A241503696A6
:100D00004111F4CF712C610126E6C20ED11C5101B4
:100D100087E6A80EB11C4101A0E68A0E911C46E0B0
:100D2000442ED6018C91781608F055C0612C8101B3
:100D3000070D111D070D111D085F1F4FF501E08004
:100D40006E1408F046C0F80140815181062C02C0A3
:100D5000569547950A94E2F741707E9C70011124E4
:100D6000E60CF11CD401ED91FC91EE0DFF1D5080BD
:100D7000B701C10149830E94BD05498197FD02C0A9
:100D8000682F1BC0019619F5442309F180E090E01B
:100D900060E070E0F101E80FF91F248D211111C00E
:100DA000469EF001479EF00D1124E20DF31D548E76
:100DB000F68EE58E10A2178E41E0C1010E94F1056A
:100DC00006C06F5F7F4F06966A30710519F763940E
:100DD000B5CF7394A6CF20E030E080E0F101E20FC0
:100DE000F31F91A1911181E02A5F3F4F2C33310510
:100DF000A9F70F90DF91CF911F910F91FF90EF9086
:100E0000DF90CF90BF90AF909F908F907F906F902A
:100E10005F904F903F902F900895CF92DF92EF9286
:100E2000FF920F931F93CF93DF938C010E94490A87
:100E3000E801C45ADF4FC880D980EA80FB806C1972
:100E40007D098E099F09F801E859FF4FC080D180C4
:100E5000E12CF12CC616D706E806F90670F4C80195
:100E60000E94C404C8010E945C06182F0E94490A0F
:100E7000688379838A839B8301C010E0812FDF918F
:100E8000CF911F910F91FF90EF90DF90CF90089539
:100E90000F931F93CF93DF93EC018C0104591F4FE5
:100EA00081E0F8018083CE010E940D07882349F07C
:100EB00089A1882331F08F8D98A1019711F48C8D31
:100EC00003C0F801108280E0DF91CF911F910F9154
:100ED0000895FC0110821482138215820895809176
:100EE000530290E020915402821B910908952091B1
:100EF000540280915302281750F4E22FF0E0EB5A8D
:100F0000FD4F808190E02F5F2093540208958FEF72
:100F10009FEF0895E091540280915302E81730F456
:100F2000F0E0EB5AFD4F808190E008958FEF9FEF46
:100F300008950895CF92DF92EF92FF920F931F933F
:100F4000CF93DF937C01CB018A0120912F022223D2
:100F500089F0EB016B01C40ED51ECC15DD0569F0DF
:100F60006991D701ED91FC910190F081E02DC701CD
:100F70000995F3CF642F0E94A908C801DF91CF9192
:100F80001F910F91FF90EF90DF90CF900895CF9336
:100F9000DF931F92CDB7DEB7698320912F02222302
:100FA000D1F020913002203240F021E030E0FC010D
:100FB0003383228380E090E015C080913102E82FD6
:100FC000F0E0EE5CFD4F998190838F5F809331025A
:100FD0008093300205C061E0CE0101960E94A9080D
:100FE00081E090E00F90DF91CF910895FC01138292
:100FF000128248EE53E060E070E0448355836683DC
:10100000778388E791E0918380830895109254025A
:101010001092530210923102109230020C94340854
:1010200081E080932F02609352021092310210925D
:10103000300208950F93062F21E04091300262E3C1
:1010400072E0809152020E94520810923102109276
:10105000300210922F020F91089561E00C941A084B
:1010600083E292E00C94F6071092E20281E0809312
:10107000E0021092DF0261E082E10E94480B61E031
:1010800083E10E94480BE9EBF0E080818E7F808352
:1010900080818D7F808388E48093B80085E480938D
:1010A000BC0008950F93413208F04AC09091E202CB
:1010B0009111FCCF92E09093E2020093E0029FEF47
:1010C000909375021092BA024093B902FB016BEB48
:1010D00072E0DB019A2F961B941718F491919D935F
:1010E000F9CF1092E1029091E102880F892B809351
:1010F000E1028091DF02813061F41092DF02809181
:10110000E1028093BB008091BC0083FDF8CF85ECA9
:1011100001C085EE8093BC00222321F08091E20281
:101120008230E1F3809175028F3F61F0809175020A
:10113000803251F080917502803341F483E007C022
:1011400081E005C080E003C082E001C084E00F912F
:101150000895613298F42091E202243089F460937A
:101160009702FC0189E992E0DC012A2F281B26174F
:1011700018F421912D93F9CF80E0089581E008952E
:1011800082E0089585ED8093BC008091BC0084FDD1
:10119000FCCF1092E202089585EC8093BC0010927F
:1011A000E20208951F920F920FB60F9211242F930F
:1011B0003F934F935F936F937F938F939F93AF93DF
:1011C000BF93EF93FF938091B900887F803609F435
:1011D0009EC078F5883209F45DC090F4803109F43E
:1011E00056C038F4882309F4F5C0883009F44FC09C
:1011F000F5C0883109F44EC0803209F45FC0EEC0FA
:10120000803409F46AC058F4803309F457C0883335
:1012100009F0E4C0809375020E94CC08DFC08035DD
:1012200009F44FC0883509F45DC0883409F0D6C090
:10123000D3C0883909F4C4C0A8F4883709F467C05A
:1012400038F4883609F463C0803709F460C0C6C03A
:10125000883809F4B5C0803909F45FC0803809F0D6
:10126000BDC05BC0803B09F483C038F4803A09F408
:1012700066C0883A09F47CC0B1C0803C09F4A4C0BF
:10128000883C09F4A1C0883B09F487C0A7C08091BD
:10129000E10210C09091BA028091B902981770F5DE
:1012A000E091BA0281E08E0F8093BA02F0E0E5543B
:1012B000FD4F80818093BB0085EC83C080937502D5
:1012C0008BC0E091BA0281E08E0F8093BA028091C8
:1012D000BB00F0E0E554FD4F80839091BA0280910D
:1012E000B9026BC0E091BA0281E08E0F8093BA021E
:1012F0008091BB00F0E0E554FD4F80838091E002D7
:1013000081116AC081E08093DF0284EA5EC083E0DD
:101310008093E20210927602CFCF809176028032E3
:1013200008F04EC0E091760281E08E0F8093760245
:101330008091BB00F0E0E958FD4F8083BDCF0E9453
:10134000CC0880917602803230F4E0917602F0E0B1
:10135000E958FD4F10826091760270E0E091DB0267
:10136000F091DC0287E792E009951092760236C090
:1013700084E08093E2021092980210929702E0912A
:10138000DD02F091DE02099580919702811105C07E
:1013900081E08093970210929902E091980281E097
:1013A0008E0F80939802F0E0E756FD4F8081809386
:1013B000BB009091980280919702981708F47CCF17
:1013C00085E88093BC000AC085EC8093BC00109235
:1013D000E20204C0109275020E94C208FF91EF91D0
:1013E000BF91AF919F918F917F916F915F914F913D
:1013F0003F912F910F900FBE0F901F9018951F9245
:101400000F920FB60F9211242F933F938F939F93B8
:10141000AF93BF938091E4029091E502A091E60220
:10142000B091E7023091E30223E0230F2D3720F43F
:101430000196A11DB11D05C026E8230F0296A11D2E
:10144000B11D2093E3028093E4029093E502A09300
:10145000E602B093E7028091E8029091E902A09140
:10146000EA02B091EB020196A11DB11D8093E80242
:101470009093E902A093EA02B093EB02BF91AF917F
:101480009F918F913F912F910F900FBE0F901F90C2
:1014900018952FB7F8946091E4027091E50280915D
:1014A000E6029091E7022FBF08953FB7F89480912C
:1014B000E8029091E902A091EA02B091EB0226B510
:1014C000A89B05C02F3F19F00196A11DB11D3FBF7C
:1014D0006627782F892F9A2F620F711D811D911D0C
:1014E00042E0660F771F881F991F4A95D1F708952C
:1014F000CF92DF92EF92FF92CF93DF936B017C014B
:101500000E94550AEB01C114D104E104F10489F0F1
:101510000E949C0F0E94550A6C1B7D0B683E734015
:1015200090F381E0C81AD108E108F108C851DC4FF6
:10153000EACFDF91CF91FF90EF90DF90CF900895A9
:101540008230910538F0880F991F880F991F0597F1
:101550000197F1F70895789484B5826084BD84B5CD
:10156000816084BD85B5826085BD85B5816085BD9E
:10157000EEE6F0E0808181608083E1E8F0E01082B7
:10158000808182608083808181608083E0E8F0E0F8
:10159000808181608083E1EBF0E0808184608083E2
:1015A000E0EBF0E0808181608083EAE7F0E0808119
:1015B0008460808380818260808380818160808379
:1015C0008081806880831092C1000895833081F00B
:1015D00028F4813099F08230A1F008958730A9F085
:1015E0008830B9F08430D1F4809180008F7D03C0C1
:1015F000809180008F7780938000089584B58F77E5
:1016000002C084B58F7D84BD08958091B0008F772E
:1016100003C08091B0008F7D8093B0000895CF9378
:10162000DF9390E0FC01E458FF4F2491FC01E05768
:10163000FF4F8491882349F190E0880F991FFC01A6
:10164000E854FF4FA591B49182559F4FFC01C5917D
:10165000D4919FB7611108C0F8948C912095822392
:101660008C93888182230AC0623051F4F8948C9163
:10167000322F309583238C938881822B888304C0FA
:10168000F8948C91822B8C939FBFDF91CF9108951A
:101690000F931F93CF93DF931F92CDB7DEB7282F01
:1016A00030E0F901E859FF4F8491F901E458FF4F08
:1016B0001491F901E057FF4F04910023C9F08823EA
:1016C00021F069830E94E60A6981E02FF0E0EE0FC5
:1016D000FF1FE255FF4FA591B4919FB7F8948C91ED
:1016E000611103C01095812301C0812B8C939FBF92
:1016F0000F90DF91CF911F910F910895CF93DF93BA
:10170000282F30E0F901E859FF4F8491F901E4589E
:10171000FF4FD491F901E057FF4FC491CC2391F0D2
:1017200081110E94E60AEC2FF0E0EE0FFF1FEC554E
:10173000FF4FA591B4912C912D2381E090E021F4ED
:1017400080E002C080E090E0DF91CF910895FC013D
:10175000818D228D90E0805C9F4F821B91098F7359
:1017600099270895FC01918D828D981731F0828D13
:10177000E80FF11D858D90E008958FEF9FEF08959C
:10178000FC01918D828D981761F0828DDF01A80F89
:10179000B11D5D968C91928D9F5F9F73928F90E0AB
:1017A00008958FEF9FEF089584E49DE0892B49F021
:1017B00087E193E0892B29F00E94440D81110C945C
:1017C00017030895FC01848DDF01A80FB11DA35AF2
:1017D000BF4F2C91848D90E001968F739927848F51
:1017E000A689B7892C93A089B1898C9180648C9348
:1017F000938D848D981306C00288F389E02D808133
:101800008F7D80830895CF93DF93EC01888D8823AB
:10181000C9F0EA89FB89808185FD05C0A889B9895D
:101820008C9186FD0FC00FB607FCF5CF808185FF38
:10183000F2CFA889B9898C9185FFEDCFCE010E94A6
:10184000E20BE7CFDF91CF910895CF92DF92FF9225
:101850000F931F93CF93DF931F92CDB7DEB76C0129
:1018600081E0D60158968C9358975B969C915B9734
:101870005C968C915C97981307C05096ED91FC9103
:101880005197808185FD2EC0F601038D10E00F5F1A
:101890001F4F0F731127F02EF601848DF81211C01F
:1018A0000FB607FCF9CFD6015096ED91FC915197F8
:1018B000808185FFF1CFC60169830E94E20B6981B7
:1018C000EBCF838DE80FF11DE35AFF4F6083D60104
:1018D0005B960C935B975296ED91FC9153978081A8
:1018E00080620CC0D6015696ED91FC9157976083AB
:1018F0005096ED91FC91519780818064808381E0C6
:1019000090E00F90DF91CF911F910F91FF90DF90AA
:10191000CF900895BF92CF92DF92EF92FF92CF9334
:10192000DF93EC016A017B01B22EE889F98982E03C
:101930008083411581EE580761057105A1F060E0D3
:1019400079E08DE390E0A70196010E949D0F215060
:101950003109410951095695479537952795211524
:1019600080E1380798F0E889F989108260E874E826
:101970008EE190E0A70196010E949D0F2150310950
:10198000410951095695479537952795EC85FD8571
:101990003083EE85FF852083188EEC89FD89B08227
:1019A000EA89FB89808180618083EA89FB89808163
:1019B00088608083EA89FB89808180688083EA89E6
:1019C000FB8980818F7D8083DF91CF91FF90EF90A5
:1019D000DF90CF90BF9008951F920F920FB60F9295
:1019E00011242F938F939F93EF93FF93E091FC0229
:1019F000F091FD028081E0910203F091030382FDEA
:101A000012C09081809105038F5F8F732091060330
:101A1000821751F0E0910503F0E0E451FD4F958FFE
:101A20008093050301C08081FF91EF919F918F9179
:101A30002F910F900FBE0F901F9018951F920F922D
:101A40000FB60F9211242F933F934F935F936F9391
:101A50007F938F939F93AF93BF93EF93FF938CEEFE
:101A600092E00E94E20BFF91EF91BF91AF919F91A5
:101A70008F917F916F915F914F913F912F910F9037
:101A80000FBE0F901F9018958CEE92E00E94A70B4E
:101A900021E0892B09F420E0822F08951092EF02B3
:101AA0001092EE0288EE93E0A0E0B0E08093F002A6
:101AB0009093F102A093F202B093F30288E891E0D0
:101AC0009093ED028093EC0285EC90E09093F90204
:101AD0008093F80284EC90E09093FB028093FA02EA
:101AE00080EC90E09093FD028093FC0281EC90E00A
:101AF0009093FF028093FE0282EC90E090930103AA
:101B00008093000386EC90E090930303809302039C
:101B10001092050310920603109207031092080317
:101B20000895CF92DF92EF92FF920F931F93CF937E
:101B3000DF937C016A01EB0100E010E00C151D054C
:101B400071F06991D701ED91FC910190F081E02D48
:101B5000C7010995892B19F00F5F1F4FEFCFC801FF
:101B6000DF91CF911F910F91FF90EF90DF90CF9079
:101B700008956115710581F0DB010D900020E9F7F2
:101B8000AD0141505109461B570BDC01ED91FC9111
:101B90000280F381E02D099480E090E00895DC015B
:101BA000ED91FC91DB0114964D915C9115976D912F
:101BB0007C910280F381E02D09940C94B90DFC0115
:101BC000808191810C945D10CF93DF93EC0188812B
:101BD0009981009711F00E945D10198218821D8270
:101BE0001C821B821A82DF91CF9108950F931F935D
:101BF000CF93DF93EC018B016F5F7F4F88819981D9
:101C00000E94EC10009731F0998388831B830A832C
:101C100081E001C080E0DF91CF911F910F91089585
:101C2000CF93DF93EC0188819981892B29F08A81F8
:101C30009B818617970760F4CE010E94F60D8823DA
:101C400041F08C819D81892B19F4E881F981108202
:101C500081E0DF91CF910895EF92FF920F931F9350
:101C6000CF93DF93EC017B018A01BA010E94100E31
:101C7000811104C0CE010E94E40D07C01D830C83B6
:101C8000B701888199810E94FA11CE01DF91CF912D
:101C90001F910F91FF90EF900895FC011182108227
:101CA00013821282158214826115710559F0FB01AD
:101CB00001900020E9F7AF0141505109461B570B35
:101CC0000C942C0E0895CF93DF93EC01FB01861743
:101CD000970761F0608171816115710529F0448178
:101CE00055810E942C0E02C00E94E40DCE01DF91AE
:101CF000CF910895FC011182108213821282158205
:101D000014820C94630ECF93DF93EC01611571057F
:101D100061F0FB0101900020E9F7AF01415051094A
:101D2000461B570B0E942C0E02C00E94E40DCE01F0
:101D3000DF91CF910895EF92FF920F931F93CF936E
:101D4000DF93EC017B010C811D816115710511F49C
:101D500080E016C04115510591F0040F151FB80120
:101D60000E94100E8823A1F3288139818C819D81E6
:101D7000B701820F931F0E94FA111D830C8381E02B
:101D8000DF91CF911F910F91FF90EF900895611512
:101D9000710559F0FB0101900020E9F7AF014150B6
:101DA0005109461B570B0C949B0E80E00895CF936E
:101DB000DF9300D0CDB7DEB769831A8241E050E0EF
:101DC000BE016F5F7F4F0E949B0E0F900F90DF91BF
:101DD000CF910895FC0124813581232B31F421E03A
:101DE00061157105A1F0FB0108C0FC0180819181A2
:101DF0006115710531F421E0FC018081882339F0FF
:101E000005C00E94F11121E0892B09F020E0822F0A
:101E10000895FC01248135816217730748F480819D
:101E20009181009729F0FC01E60FF71F808108954A
:101E300080E008950C94090FCF93DF93FC01848117
:101E400095814817590778F4C081D181772767FDBC
:101E50007095CE01840F951F0E94E611009719F02E
:101E60008C1B9D0B02C08FEF9FEFDF91CF910895E8
:101E700040E050E00C941C0FBF92CF92DF92EF92A3
:101E8000FF920F931F93CF93DF936C017B01EA01C5
:101E900089012417350720F48D2FE901042F182F0D
:101EA00060E571E0C6010E944D0ED70114968D9138
:101EB0009C911597C817D907C8F48017910708F4A3
:101EC0008C01D701ED91FC911197E00FF11FB080CB
:101ED00010826D917C916C0F7D1FC6010E94830E54
:101EE000D701ED91FC91E00FF11FB082C601DF91A7
:101EF000CF911F910F91FF90EF90DF90CF90BF9007
:101F00000895FC0180819181009711F00C94B61125
:101F100060E070E0CB01089508950E94AB0A0E9432
:101F20008C0F0E948F00C4EDDBE00E944A022097D4
:101F3000E1F30E94D40BF9CF0895A1E21A2EAA1B57
:101F4000BB1BFD010DC0AA1FBB1FEE1FFF1FA21769
:101F5000B307E407F50720F0A21BB30BE40BF50B66
:101F6000661F771F881F991F1A9469F760957095EF
:101F7000809590959B01AC01BD01CF010895EE0FB6
:101F8000FF1F0590F491E02D0994CF93DF938230E9
:101F9000910510F482E090E0E0918B03F0918C03C6
:101FA00020E030E0A0E0B0E0309739F1408151818D
:101FB00048175907B8F04817590771F4828193817F
:101FC000109729F013969C938E9312972CC09093A0
:101FD0008C0380938B0327C02115310531F0421704
:101FE000530718F0A901DB0101C0EF019A01BD01FF
:101FF000DF010280F381E02DD7CF21153105F9F003
:10200000281B390B2430310580F48A819B816115AE
:10201000710521F0FB019383828304C090938C03AC
:1020200080938B03FE01329644C0FE01E20FF31F42
:102030008193919322503109398328833AC02091AA
:10204000890330918A03232B41F4209102013091BE
:10205000030130938A03209389032091000130917A
:1020600001012115310541F42DB73EB7409104011E
:1020700050910501241B350BE0918903F0918A03EF
:10208000E217F307A0F42E1B3F0B2817390778F04F
:10209000AC014E5F5F4F2417350748F04E0F5F1FAE
:1020A00050938A03409389038193919302C0E0E0A7
:1020B000F0E0CF01DF91CF910895CF93DF930097A8
:1020C00009F487C0FC01329713821282C0918B03FE
:1020D000D0918C03209781F420813181280F391F02
:1020E0008091890390918A038217930779F5F09381
:1020F0008A03E09389036DC0DE0120E030E0AE1773
:10210000BF0750F412964D915C9113979D014115B4
:10211000510509F1DA01F3CFB383A28340815181E4
:10212000840F951F8A179B0771F48D919C911197CD
:10213000840F951F02969183808312968D919C91B6
:102140001397938382832115310529F4F0938C032F
:10215000E0938B033EC0D9011396FC93EE93129744
:102160004D915D91A40FB51FEA17FB0779F48081AB
:102170009181840F951F0296D90111969C938E939D
:102180008281938113969C938E931297E0E0F0E006
:102190008A819B81009719F0FE01EC01F9CFCE01F5
:1021A000029628813981820F931F209189033091F3
:1021B0008A032817390769F4309729F410928C03A1
:1021C00010928B0302C013821282D0938A03C093B1
:1021D0008903DF91CF910895A0E0B0E0E2EFF0E154
:1021E0000C941A12EC01CB01209719F40E94C50F30
:1021F000B8C0FE01E60FF71F9E0122503109E21719
:10220000F30708F4ACC0D9010D911C911197061782
:102210001707B8F00530110508F49FC0A801445015
:1022200051094617570708F498C002501109061BB8
:10223000170B019311936D937C93CF010E945D1056
:102240008CC05B01A01AB10A4E01800E911EA091B4
:102250008B03B0918C03612C712C60E070E01097BF
:1022600009F449C0A815B905C9F5ED90FC9011977E
:10227000670142E0C40ED11CCA14DB0478F14701A7
:102280008A189B08640142E0C40ED11C1296BC90CF
:1022900012971396AC91B5E0CB16D10440F0B28200
:1022A000A38391828082D9018D939C9309C00E5F94
:1022B0001F4F0E0D1F1DF90111830083EB2DFA2F07
:1022C0006115710531F0DB011396FC93EE931297C3
:1022D00044C0F0938C03E0938B033FC06D917C91DD
:1022E00011976616770608F43B01BD0112960D9012
:1022F000BC91A02DB4CF6091890370918A036815B9
:102300007905E9F468167906D0F4409100015091FE
:1023100001014115510541F44DB75EB760910401CB
:1023200070910501461B570BE417F507C0F4F093B5
:102330008A03E0938903F901918380830EC00E9490
:10234000C50F7C01009759F0A801BE010E94DD1164
:10235000CE010E945D10C70104C0CE0102C080E022
:1023600090E0CDB7DEB7EEE00C9436121F93FC017F
:1023700099278827BC01E89411911032E9F31930AC
:1023800010F01E30C8F31B3251F01D3249F468942E
:1023900006C00E940112610F711D811D911D1191D6
:1023A00010531A30B0F33EF4909580957095619576
:1023B0007F4F8F4F9F4F1F910895FB01DC0102C09B
:1023C00001900D9241505040D8F70895FC01819141
:1023D000861721F08823D9F7992708953197CF01DF
:1023E0000895FB01DC018D91019080190110D9F352
:1023F000990B0895FB01DC0101900D920020E1F79B
:102400000895592F482F372F262F660F771F881FC3
:10241000991F660F771F881F991F620F731F841FF4
:10242000951F660F771F881F991F08952F923F925F
:102430004F925F926F927F928F929F92AF92BF92D4
:10244000CF92DF92EF92FF920F931F93CF93DF9380
:10245000CDB7DEB7CA1BDB0B0FB6F894DEBF0FBEDD
:10246000CDBF09942A88398848885F846E847D842A
:102470008C849B84AA84B984C884DF80EE80FD802C
:102480000C811B81AA81B981CE0FD11D0FB6F894A2
:10249000DEBF0FBECDBFED01089510E0C8ECD0E067
:1024A00004C0FE010E94C10F2296CA3CD107C9F7A1
:0424B000F894FFCFCE
:1024B40000008D03800001050403020908070631AA
:1024C40032334134353642373839432A30234400D5
:1024D4000040001400540050494C494748542062BD
:1024E4006F6F74696E672E2E2E004F4E4C494E4509
:1024F4000A002020202020004F46464C494E450A21
:1025040000434C454152004D45535341474520003B
:102514002A0000000000FD03910D000000005C048F
:102524006004640400000000C7079A076F07770778
:102534008A07990700000000250C910DA70BC00B1A
:04254400B20B030CC7
:107800000C94343C0C94513C0C94513C0C94513CE1
:107810000C94513C0C94513C0C94513C0C94513CB4
:107820000C94513C0C94513C0C94513C0C94513CA4
:107830000C94513C0C94513C0C94513C0C94513C94
:107840000C94513C0C94513C0C94513C0C94513C84
:107850000C94513C0C94513C0C94513C0C94513C74
:107860000C94513C0C94513C11241FBECFEFD8E036
:10787000DEBFCDBF11E0A0E0B1E0ECE9FFE702C060
:1078800005900D92A230B107D9F712E0A2E0B1E065
:1078900001C01D92AD30B107E1F70E942D3D0C945F
:1078A000CC3F0C94003C982F959595959595959582
:1078B000905D8F708A307CF0282F295A8091C0000B
:1078C00085FFFCCF9093C6008091C00085FFFCCF60
:1078D0002093C6000895282F205DF0CF982F809127
:1078E000C00085FFFCCF9093C6000895EF92FF92F1
:1078F0000F931F93EE24FF2487018091C00087FD22
:1079000017C00894E11CF11C011D111D81E4E8164B
:1079100082E4F8068FE0080780E0180770F3E09132
:107920000401F091050109958091C00087FFE9CF1E
:107930008091C6001F910F91FF90EF9008950E94D3
:10794000763C982F8091C00085FFFCCF9093C600B5
:1079500091362CF490330CF09053892F089597555D
:10796000892F08951F930E949F3C182F0E949F3CCF
:107970001295107F810F1F9108951F93182F882350
:1079800021F00E94763C1150E1F71F9108951F935A
:10799000182F0E94763C803249F0809103018F5F5E
:1079A000809303018530C1F01F9108958091C0003C
:1079B00085FFFCCF84E18093C6008091C00085FFE5
:1079C000FCCF1093C6008091C00085FFFCCF80E102
:1079D0008093C6001F910895E0910401F091050184
:1079E00009951F9108950E94763C803241F0809164
:1079F00003018F5F80930301853081F008958091AA
:107A0000C00085FFFCCF84E18093C6008091C00058
:107A100085FFFCCF80E18093C6000895E0910401CA
:107A2000F09105010995089540E951E08823A1F0FE
:107A30002D9A28EE33E0FA013197F1F721503040CA
:107A4000D1F72D9828EE33E0FA013197F1F7215064
:107A50003040D1F7815061F708953F924F925F9285
:107A60006F927F928F929F92AF92BF92CF92DF924E
:107A7000EF92FF920F931F93CF93DF93000080E16B
:107A80008093C4001092C50088E18093C10086E015
:107A90008093C2005098589A259A81E00E94143D24
:107AA00024E1F22E9EE1E92E85E9D82E0FE0C02ECA
:107AB00010E1B12EAA24A394B1E49B2EA6E58A2E50
:107AC000F2E57F2EE0E26E2E79E4572E63E5462E36
:107AD00050E5352E0E94763C8033B1F18133B9F107
:107AE000803409F46FC0813409F476C0823409F41B
:107AF00085C0853409F488C0803531F1823521F1A3
:107B0000813511F1853509F485C0863509F48DC0BC
:107B1000843609F496C0843709F403C1853709F423
:107B200072C1863709F466C0809103018F5F80932C
:107B30000301853079F6E0910401F0910501099582
:107B40000E94763C803351F60E94F33CC3CF0E94E2
:107B5000763C803249F78091C00085FFFCCFF092DF
:107B6000C6008091C00085FFFCCF9092C600809136
:107B7000C00085FFFCCF8092C6008091C00085FFC9
:107B8000FCCF7092C6008091C00085FFFCCF609250
:107B9000C6008091C00085FFFCCF5092C600809146
:107BA000C00085FFFCCF4092C6008091C00085FFD9
:107BB000FCCF3092C6008091C00085FFFCCFB09210
:107BC000C60088CF0E94763C863808F4BDCF0E945C
:107BD000763C0E94F33C7ECF0E94763C803809F4CC
:107BE0009CC0813809F40BC1823809F43CC1883942
:107BF00009F48FC080E00E94C73C6CCF84E10E94F2
:107C0000BD3C0E94F33C66CF85E00E94BD3C0E94D3
:107C1000F33C60CF0E94763C809306010E94763C44
:107C2000809307010E94F33C55CF0E94763C80333D
:107C300009F41DC183E00E94BD3C80E00E94C73C66
:107C400049CF0E94763C809309020E94763C809343
:107C5000080280910C028E7F80930C020E94763C79
:107C6000853409F415C18091080290910902892B8D
:107C700089F000E010E00E94763CF801E85FFE4FDA
:107C800080830F5F1F4F80910802909109020817AF
:107C9000190788F30E94763C803209F045CF809125
:107CA0000C0280FF01C16091060170910701660F0F
:107CB000771F7093070160930601A0910802B091AD
:107CC00009021097C9F0E8E0F1E09B01AD014E0F09
:107CD0005F1FF999FECF32BD21BD819180BDFA9A17
:107CE000F99A2F5F3F4FE417F50799F76A0F7B1F4B
:107CF00070930701609306018091C00085FFFCCF5F
:107D0000F092C6008091C00085FFFCCFB092C60003
:107D1000E1CE83E00E94C73CDDCE82E00E94C73CFA
:107D2000D9CE0E94763C809309020E94763C8093D3
:107D300008028091060190910701880F991F909386
:107D40000701809306010E94763C853409F4A6C0A1
:107D500080910C028E7F80930C020E94763C8032D0
:107D600009F0B8CE8091C00085FFFCCFF092C6002C
:107D7000609108027091090261157105B9F140E046
:107D800050E080910C02A82FA170B82FB27011C0E2
:107D9000BB2309F45CC0E0910601F0910701319624
:107DA000F0930701E09306014F5F5F4F46175707B7
:107DB000E8F4AA2369F3F999FECF209106013091E6
:107DC000070132BD21BDF89A90B58091C00085FFB2
:107DD000FCCF9093C6002F5F3F4F30930701209355
:107DE00006014F5F5F4F4617570718F38091C00099
:107DF00085FDE5CE8091C00085FFF8CFE0CE81E023
:107E00000E94C73C67CE0E94763C803209F08CCE3F
:107E10008091C00085FFFCCFF092C6008091C00029
:107E200085FFFCCFE092C6008091C00085FFFCCFAB
:107E3000D092C6008091C00085FFFCCFC092C600E2
:107E40008091C00085FFFCCFB092C60043CEE09188
:107E50000601F091070194918091C00085FFFCCF4D
:107E60009093C6009CCF80E10E94C73C33CE0E9415
:107E7000763C0E94763C182F0E94763C112309F430
:107E800083C0113009F484C08FE00E94C73C22CE29
:107E900080910C02816080930C02E5CE80910C02EF
:107EA000816080930C0259CF809107018823880F4D
:107EB000880B8A2180930B02809106019091070123
:107EC000880F991F90930701809306018091080203
:107ED00080FF09C080910802909109020196909359
:107EE000090280930802F894F999FECF1127E091D6
:107EF0000601F0910701C8E0D1E08091080290915D
:107F00000902103091F40091570001700130D9F34B
:107F100003E000935700E89500915700017001308D
:107F2000D9F301E100935700E89509901990009169
:107F3000570001700130D9F301E000935700E89534
:107F40001395103498F011270091570001700130FB
:107F5000D9F305E000935700E895009157000170B0
:107F60000130D9F301E100935700E895329602976A
:107F700009F0C7CF103011F00296E5CF112480919F
:107F8000C00085FFB9CEBCCE8EE10E94C73CA2CD19
:0C7F900085E90E94C73C9ECDF894FFCF0D
:027F9C00800063
:040000030000780081
:00000001FF
